{
	"data": {
		"bytecode": {
			"linkReferences": {},
			"object": "610e1761004d600b8282823980515f1a6073146041577f4e487b71000000000000000000000000000000000000000000000000000000005f525f60045260245ffd5b305f52607381538281f3fe730000000000000000000000000000000000000000301460806040526004361061003f575f3560e01c80630d8809af1461004357806353db75a01461007f575b5f5ffd5b81801561004e575f5ffd5b50610069600480360381019061006491906106d8565b6100b0565b6040516100769190610839565b60405180910390f35b61009960048036038101906100949190610aa5565b6104e0565b6040516100a7929190610b0e565b60405180910390f35b60605f5f610196856040518060400160405290815f8201805480602002602001604051908101604052809291908181526020015f905b8282101561017e578382905f5260205f2090600302016040518060600160405290815f82015f9054906101000a900473ffffffffffffffffffffffffffffffffffffffff1673ffffffffffffffffffffffffffffffffffffffff1673ffffffffffffffffffffffffffffffffffffffff16815260200160018201548152602001600282015481525050815260200190600101906100e6565b505050508152602001600182015481525050856104e0565b915091505f856001015490508083146101e4576040517f08c379a00000000000000000000000000000000000000000000000000000000081526004016101db90610b8f565b60405180910390fd5b5f8590505f8367ffffffffffffffff8111156102035761020261086d565b5b60405190808252806020026020018201604052801561023c57816020015b610229610633565b8152602001906001900390816102215790505b5090505f5f90505b8481101561048f575f61029f8a5f01868154811061026557610264610bad565b5b905f5260205f209060030201600101548b5f01878154811061028a57610289610bad565b5b905f5260205f2090600302016002015461061b565b90505f811115610461578084116103415760405180604001604052808b5f0187815481106102d0576102cf610bad565b5b905f5260205f2090600302015f015f9054906101000a900473ffffffffffffffffffffffffffffffffffffffff1673ffffffffffffffffffffffffffffffffffffffff168152602001858152508383815181106103305761032f610bad565b5b60200260200101819052505061048f565b60405180604001604052808b5f01878154811061036157610360610bad565b5b905f5260205f2090600302015f015f9054906101000a900473ffffffffffffffffffffffffffffffffffffffff1673ffffffffffffffffffffffffffffffffffffffff168152602001828152508383815181106103c1576103c0610bad565b5b60200260200101819052507fffffffffffffffffffffffffffffffffffffffffffffffffffffffffffffffff8a5f01868154811061040257610401610bad565b5b905f5260205f209060030201600201541461045257808a5f01868154811061042d5761042c610bad565b5b905f5260205f2090600302016002015f82825461044a9190610c07565b925050819055505b808461045e9190610c07565b93505b895f01805490506001866104759190610c3a565b61047f9190610c9a565b9450508080600101915050610244565b505f82146104d2576040517f08c379a00000000000000000000000000000000000000000000000000000000081526004016104c990610d14565b60405180910390fd5b809550505050505092915050565b5f5f5f8390505f855f015190505f866020015190505f5f5f90505b5f8511801561050a5750835181105b156105c7575f61055685858151811061052657610525610bad565b5b60200260200101516020015186868151811061054557610544610bad565b5b60200260200101516040015161061b565b90505f81111561058a5780861161057b57828061057290610d32565b935050506105c7565b80866105879190610c07565b95505b84516001856105999190610c3a565b6105a39190610c9a565b935082806105b090610d32565b93505081806105be90610d32565b925050506104fb565b5f8514610609576040517f08c379a000000000000000000000000000000000000000000000000000000000815260040161060090610dc3565b60405180910390fd5b82829650965050505050509250929050565b5f818311610629578261062b565b815b905092915050565b60405180604001604052805f73ffffffffffffffffffffffffffffffffffffffff1681526020015f81525090565b5f604051905090565b5f5ffd5b5f5ffd5b5f819050919050565b61068481610672565b811461068e575f5ffd5b50565b5f8135905061069f8161067b565b92915050565b5f819050919050565b6106b7816106a5565b81146106c1575f5ffd5b50565b5f813590506106d2816106ae565b92915050565b5f5f604083850312156106ee576106ed61066a565b5b5f6106fb85828601610691565b925050602061070c858286016106c4565b9150509250929050565b5f81519050919050565b5f82825260208201905092915050565b5f819050602082019050919050565b5f73ffffffffffffffffffffffffffffffffffffffff82169050919050565b5f6107688261073f565b9050919050565b6107788161075e565b82525050565b610787816106a5565b82525050565b604082015f8201516107a15f85018261076f565b5060208201516107b4602085018261077e565b50505050565b5f6107c5838361078d565b60408301905092915050565b5f602082019050919050565b5f6107e782610716565b6107f18185610720565b93506107fc83610730565b805f5b8381101561082c57815161081388826107ba565b975061081e836107d1565b9250506001810190506107ff565b5085935050505092915050565b5f6020820190508181035f83015261085181846107dd565b905092915050565b5f5ffd5b5f601f19601f8301169050919050565b7f4e487b71000000000000000000000000000000000000000000000000000000005f52604160045260245ffd5b6108a38261085d565b810181811067ffffffffffffffff821117156108c2576108c161086d565b5b80604052505050565b5f6108d4610661565b90506108e0828261089a565b919050565b5f5ffd5b5f5ffd5b5f67ffffffffffffffff8211156109075761090661086d565b5b602082029050602081019050919050565b5f5ffd5b6109258161075e565b811461092f575f5ffd5b50565b5f813590506109408161091c565b92915050565b5f6060828403121561095b5761095a610859565b5b61096560606108cb565b90505f61097484828501610932565b5f830152506020610987848285016106c4565b602083015250604061099b848285016106c4565b60408301525092915050565b5f6109b96109b4846108ed565b6108cb565b905080838252602082019050606084028301858111156109dc576109db610918565b5b835b81811015610a0557806109f18882610946565b8452602084019350506060810190506109de565b5050509392505050565b5f82601f830112610a2357610a226108e9565b5b8135610a338482602086016109a7565b91505092915050565b5f60408284031215610a5157610a50610859565b5b610a5b60406108cb565b90505f82013567ffffffffffffffff811115610a7a57610a796108e5565b5b610a8684828501610a0f565b5f830152506020610a99848285016106c4565b60208301525092915050565b5f5f60408385031215610abb57610aba61066a565b5b5f83013567ffffffffffffffff811115610ad857610ad761066e565b5b610ae485828601610a3c565b9250506020610af5858286016106c4565b9150509250929050565b610b08816106a5565b82525050565b5f604082019050610b215f830185610aff565b610b2e6020830184610aff565b9392505050565b5f82825260208201905092915050565b7f506f696e746572206d69736d61746368000000000000000000000000000000005f82015250565b5f610b79601083610b35565b9150610b8482610b45565b602082019050919050565b5f6020820190508181035f830152610ba681610b6d565b9050919050565b7f4e487b71000000000000000000000000000000000000000000000000000000005f52603260045260245ffd5b7f4e487b71000000000000000000000000000000000000000000000000000000005f52601160045260245ffd5b5f610c11826106a5565b9150610c1c836106a5565b9250828203905081811115610c3457610c33610bda565b5b92915050565b5f610c44826106a5565b9150610c4f836106a5565b9250828201905080821115610c6757610c66610bda565b5b92915050565b7f4e487b71000000000000000000000000000000000000000000000000000000005f52601260045260245ffd5b5f610ca4826106a5565b9150610caf836106a5565b925082610cbf57610cbe610c6d565b5b828206905092915050565b7f556e61626c6520746f2066756c66696c6c2074686520616d6f756e74000000005f82015250565b5f610cfe601c83610b35565b9150610d0982610cca565b602082019050919050565b5f6020820190508181035f830152610d2b81610cf2565b9050919050565b5f610d3c826106a5565b91507fffffffffffffffffffffffffffffffffffffffffffffffffffffffffffffffff8203610d6e57610d6d610bda565b5b600182019050919050565b7f496e73756666696369656e74206c6971756964697479000000000000000000005f82015250565b5f610dad601683610b35565b9150610db882610d79565b602082019050919050565b5f6020820190508181035f830152610dda81610da1565b905091905056fea2646970667358221220edd0bb725ded9cccb6606637862d23bb18a2b4f84d45a07ec531d2ccf2f480dc64736f6c634300081c0033",
			"opcodes": "PUSH2 0xE17 PUSH2 0x4D PUSH1 0xB DUP3 DUP3 DUP3 CODECOPY DUP1 MLOAD PUSH0 BYTE PUSH1 0x73 EQ PUSH1 0x41 JUMPI PUSH32 0x4E487B7100000000000000000000000000000000000000000000000000000000 PUSH0 MSTORE PUSH0 PUSH1 0x4 MSTORE PUSH1 0x24 PUSH0 REVERT JUMPDEST ADDRESS PUSH0 MSTORE PUSH1 0x73 DUP2 MSTORE8 DUP3 DUP2 RETURN INVALID PUSH20 0x0 ADDRESS EQ PUSH1 0x80 PUSH1 0x40 MSTORE PUSH1 0x4 CALLDATASIZE LT PUSH2 0x3F JUMPI PUSH0 CALLDATALOAD PUSH1 0xE0 SHR DUP1 PUSH4 0xD8809AF EQ PUSH2 0x43 JUMPI DUP1 PUSH4 0x53DB75A0 EQ PUSH2 0x7F JUMPI JUMPDEST PUSH0 PUSH0 REVERT JUMPDEST DUP2 DUP1 ISZERO PUSH2 0x4E JUMPI PUSH0 PUSH0 REVERT JUMPDEST POP PUSH2 0x69 PUSH1 0x4 DUP1 CALLDATASIZE SUB DUP2 ADD SWAP1 PUSH2 0x64 SWAP2 SWAP1 PUSH2 0x6D8 JUMP JUMPDEST PUSH2 0xB0 JUMP JUMPDEST PUSH1 0x40 MLOAD PUSH2 0x76 SWAP2 SWAP1 PUSH2 0x839 JUMP JUMPDEST PUSH1 0x40 MLOAD DUP1 SWAP2 SUB SWAP1 RETURN JUMPDEST PUSH2 0x99 PUSH1 0x4 DUP1 CALLDATASIZE SUB DUP2 ADD SWAP1 PUSH2 0x94 SWAP2 SWAP1 PUSH2 0xAA5 JUMP JUMPDEST PUSH2 0x4E0 JUMP JUMPDEST PUSH1 0x40 MLOAD PUSH2 0xA7 SWAP3 SWAP2 SWAP1 PUSH2 0xB0E JUMP JUMPDEST PUSH1 0x40 MLOAD DUP1 SWAP2 SUB SWAP1 RETURN JUMPDEST PUSH1 0x60 PUSH0 PUSH0 PUSH2 0x196 DUP6 PUSH1 0x40 MLOAD DUP1 PUSH1 0x40 ADD PUSH1 0x40 MSTORE SWAP1 DUP2 PUSH0 DUP3 ADD DUP1 SLOAD DUP1 PUSH1 0x20 MUL PUSH1 0x20 ADD PUSH1 0x40 MLOAD SWAP1 DUP2 ADD PUSH1 0x40 MSTORE DUP1 SWAP3 SWAP2 SWAP1 DUP2 DUP2 MSTORE PUSH1 0x20 ADD PUSH0 SWAP1 JUMPDEST DUP3 DUP3 LT ISZERO PUSH2 0x17E JUMPI DUP4 DUP3 SWAP1 PUSH0 MSTORE PUSH1 0x20 PUSH0 KECCAK256 SWAP1 PUSH1 0x3 MUL ADD PUSH1 0x40 MLOAD DUP1 PUSH1 0x60 ADD PUSH1 0x40 MSTORE SWAP1 DUP2 PUSH0 DUP3 ADD PUSH0 SWAP1 SLOAD SWAP1 PUSH2 0x100 EXP SWAP1 DIV PUSH20 0xFFFFFFFFFFFFFFFFFFFFFFFFFFFFFFFFFFFFFFFF AND PUSH20 0xFFFFFFFFFFFFFFFFFFFFFFFFFFFFFFFFFFFFFFFF AND PUSH20 0xFFFFFFFFFFFFFFFFFFFFFFFFFFFFFFFFFFFFFFFF AND DUP2 MSTORE PUSH1 0x20 ADD PUSH1 0x1 DUP3 ADD SLOAD DUP2 MSTORE PUSH1 0x20 ADD PUSH1 0x2 DUP3 ADD SLOAD DUP2 MSTORE POP POP DUP2 MSTORE PUSH1 0x20 ADD SWAP1 PUSH1 0x1 ADD SWAP1 PUSH2 0xE6 JUMP JUMPDEST POP POP POP POP DUP2 MSTORE PUSH1 0x20 ADD PUSH1 0x1 DUP3 ADD SLOAD DUP2 MSTORE POP POP DUP6 PUSH2 0x4E0 JUMP JUMPDEST SWAP2 POP SWAP2 POP PUSH0 DUP6 PUSH1 0x1 ADD SLOAD SWAP1 POP DUP1 DUP4 EQ PUSH2 0x1E4 JUMPI PUSH1 0x40 MLOAD PUSH32 0x8C379A000000000000000000000000000000000000000000000000000000000 DUP2 MSTORE PUSH1 0x4 ADD PUSH2 0x1DB SWAP1 PUSH2 0xB8F JUMP JUMPDEST PUSH1 0x40 MLOAD DUP1 SWAP2 SUB SWAP1 REVERT JUMPDEST PUSH0 DUP6 SWAP1 POP PUSH0 DUP4 PUSH8 0xFFFFFFFFFFFFFFFF DUP2 GT ISZERO PUSH2 0x203 JUMPI PUSH2 0x202 PUSH2 0x86D JUMP JUMPDEST JUMPDEST PUSH1 0x40 MLOAD SWAP1 DUP1 DUP3 MSTORE DUP1 PUSH1 0x20 MUL PUSH1 0x20 ADD DUP3 ADD PUSH1 0x40 MSTORE DUP1 ISZERO PUSH2 0x23C JUMPI DUP2 PUSH1 0x20 ADD JUMPDEST PUSH2 0x229 PUSH2 0x633 JUMP JUMPDEST DUP2 MSTORE PUSH1 0x20 ADD SWAP1 PUSH1 0x1 SWAP1 SUB SWAP1 DUP2 PUSH2 0x221 JUMPI SWAP1 POP JUMPDEST POP SWAP1 POP PUSH0 PUSH0 SWAP1 POP JUMPDEST DUP5 DUP2 LT ISZERO PUSH2 0x48F JUMPI PUSH0 PUSH2 0x29F DUP11 PUSH0 ADD DUP7 DUP2 SLOAD DUP2 LT PUSH2 0x265 JUMPI PUSH2 0x264 PUSH2 0xBAD JUMP JUMPDEST JUMPDEST SWAP1 PUSH0 MSTORE PUSH1 0x20 PUSH0 KECCAK256 SWAP1 PUSH1 0x3 MUL ADD PUSH1 0x1 ADD SLOAD DUP12 PUSH0 ADD DUP8 DUP2 SLOAD DUP2 LT PUSH2 0x28A JUMPI PUSH2 0x289 PUSH2 0xBAD JUMP JUMPDEST JUMPDEST SWAP1 PUSH0 MSTORE PUSH1 0x20 PUSH0 KECCAK256 SWAP1 PUSH1 0x3 MUL ADD PUSH1 0x2 ADD SLOAD PUSH2 0x61B JUMP JUMPDEST SWAP1 POP PUSH0 DUP2 GT ISZERO PUSH2 0x461 JUMPI DUP1 DUP5 GT PUSH2 0x341 JUMPI PUSH1 0x40 MLOAD DUP1 PUSH1 0x40 ADD PUSH1 0x40 MSTORE DUP1 DUP12 PUSH0 ADD DUP8 DUP2 SLOAD DUP2 LT PUSH2 0x2D0 JUMPI PUSH2 0x2CF PUSH2 0xBAD JUMP JUMPDEST JUMPDEST SWAP1 PUSH0 MSTORE PUSH1 0x20 PUSH0 KECCAK256 SWAP1 PUSH1 0x3 MUL ADD PUSH0 ADD PUSH0 SWAP1 SLOAD SWAP1 PUSH2 0x100 EXP SWAP1 DIV PUSH20 0xFFFFFFFFFFFFFFFFFFFFFFFFFFFFFFFFFFFFFFFF AND PUSH20 0xFFFFFFFFFFFFFFFFFFFFFFFFFFFFFFFFFFFFFFFF AND DUP2 MSTORE PUSH1 0x20 ADD DUP6 DUP2 MSTORE POP DUP4 DUP4 DUP2 MLOAD DUP2 LT PUSH2 0x330 JUMPI PUSH2 0x32F PUSH2 0xBAD JUMP JUMPDEST JUMPDEST PUSH1 0x20 MUL PUSH1 0x20 ADD ADD DUP2 SWAP1 MSTORE POP POP PUSH2 0x48F JUMP JUMPDEST PUSH1 0x40 MLOAD DUP1 PUSH1 0x40 ADD PUSH1 0x40 MSTORE DUP1 DUP12 PUSH0 ADD DUP8 DUP2 SLOAD DUP2 LT PUSH2 0x361 JUMPI PUSH2 0x360 PUSH2 0xBAD JUMP JUMPDEST JUMPDEST SWAP1 PUSH0 MSTORE PUSH1 0x20 PUSH0 KECCAK256 SWAP1 PUSH1 0x3 MUL ADD PUSH0 ADD PUSH0 SWAP1 SLOAD SWAP1 PUSH2 0x100 EXP SWAP1 DIV PUSH20 0xFFFFFFFFFFFFFFFFFFFFFFFFFFFFFFFFFFFFFFFF AND PUSH20 0xFFFFFFFFFFFFFFFFFFFFFFFFFFFFFFFFFFFFFFFF AND DUP2 MSTORE PUSH1 0x20 ADD DUP3 DUP2 MSTORE POP DUP4 DUP4 DUP2 MLOAD DUP2 LT PUSH2 0x3C1 JUMPI PUSH2 0x3C0 PUSH2 0xBAD JUMP JUMPDEST JUMPDEST PUSH1 0x20 MUL PUSH1 0x20 ADD ADD DUP2 SWAP1 MSTORE POP PUSH32 0xFFFFFFFFFFFFFFFFFFFFFFFFFFFFFFFFFFFFFFFFFFFFFFFFFFFFFFFFFFFFFFFF DUP11 PUSH0 ADD DUP7 DUP2 SLOAD DUP2 LT PUSH2 0x402 JUMPI PUSH2 0x401 PUSH2 0xBAD JUMP JUMPDEST JUMPDEST SWAP1 PUSH0 MSTORE PUSH1 0x20 PUSH0 KECCAK256 SWAP1 PUSH1 0x3 MUL ADD PUSH1 0x2 ADD SLOAD EQ PUSH2 0x452 JUMPI DUP1 DUP11 PUSH0 ADD DUP7 DUP2 SLOAD DUP2 LT PUSH2 0x42D JUMPI PUSH2 0x42C PUSH2 0xBAD JUMP JUMPDEST JUMPDEST SWAP1 PUSH0 MSTORE PUSH1 0x20 PUSH0 KECCAK256 SWAP1 PUSH1 0x3 MUL ADD PUSH1 0x2 ADD PUSH0 DUP3 DUP3 SLOAD PUSH2 0x44A SWAP2 SWAP1 PUSH2 0xC07 JUMP JUMPDEST SWAP3 POP POP DUP2 SWAP1 SSTORE POP JUMPDEST DUP1 DUP5 PUSH2 0x45E SWAP2 SWAP1 PUSH2 0xC07 JUMP JUMPDEST SWAP4 POP JUMPDEST DUP10 PUSH0 ADD DUP1 SLOAD SWAP1 POP PUSH1 0x1 DUP7 PUSH2 0x475 SWAP2 SWAP1 PUSH2 0xC3A JUMP JUMPDEST PUSH2 0x47F SWAP2 SWAP1 PUSH2 0xC9A JUMP JUMPDEST SWAP5 POP POP DUP1 DUP1 PUSH1 0x1 ADD SWAP2 POP POP PUSH2 0x244 JUMP JUMPDEST POP PUSH0 DUP3 EQ PUSH2 0x4D2 JUMPI PUSH1 0x40 MLOAD PUSH32 0x8C379A000000000000000000000000000000000000000000000000000000000 DUP2 MSTORE PUSH1 0x4 ADD PUSH2 0x4C9 SWAP1 PUSH2 0xD14 JUMP JUMPDEST PUSH1 0x40 MLOAD DUP1 SWAP2 SUB SWAP1 REVERT JUMPDEST DUP1 SWAP6 POP POP POP POP POP POP SWAP3 SWAP2 POP POP JUMP JUMPDEST PUSH0 PUSH0 PUSH0 DUP4 SWAP1 POP PUSH0 DUP6 PUSH0 ADD MLOAD SWAP1 POP PUSH0 DUP7 PUSH1 0x20 ADD MLOAD SWAP1 POP PUSH0 PUSH0 PUSH0 SWAP1 POP JUMPDEST PUSH0 DUP6 GT DUP1 ISZERO PUSH2 0x50A JUMPI POP DUP4 MLOAD DUP2 LT JUMPDEST ISZERO PUSH2 0x5C7 JUMPI PUSH0 PUSH2 0x556 DUP6 DUP6 DUP2 MLOAD DUP2 LT PUSH2 0x526 JUMPI PUSH2 0x525 PUSH2 0xBAD JUMP JUMPDEST JUMPDEST PUSH1 0x20 MUL PUSH1 0x20 ADD ADD MLOAD PUSH1 0x20 ADD MLOAD DUP7 DUP7 DUP2 MLOAD DUP2 LT PUSH2 0x545 JUMPI PUSH2 0x544 PUSH2 0xBAD JUMP JUMPDEST JUMPDEST PUSH1 0x20 MUL PUSH1 0x20 ADD ADD MLOAD PUSH1 0x40 ADD MLOAD PUSH2 0x61B JUMP JUMPDEST SWAP1 POP PUSH0 DUP2 GT ISZERO PUSH2 0x58A JUMPI DUP1 DUP7 GT PUSH2 0x57B JUMPI DUP3 DUP1 PUSH2 0x572 SWAP1 PUSH2 0xD32 JUMP JUMPDEST SWAP4 POP POP POP PUSH2 0x5C7 JUMP JUMPDEST DUP1 DUP7 PUSH2 0x587 SWAP2 SWAP1 PUSH2 0xC07 JUMP JUMPDEST SWAP6 POP JUMPDEST DUP5 MLOAD PUSH1 0x1 DUP6 PUSH2 0x599 SWAP2 SWAP1 PUSH2 0xC3A JUMP JUMPDEST PUSH2 0x5A3 SWAP2 SWAP1 PUSH2 0xC9A JUMP JUMPDEST SWAP4 POP DUP3 DUP1 PUSH2 0x5B0 SWAP1 PUSH2 0xD32 JUMP JUMPDEST SWAP4 POP POP DUP2 DUP1 PUSH2 0x5BE SWAP1 PUSH2 0xD32 JUMP JUMPDEST SWAP3 POP POP POP PUSH2 0x4FB JUMP JUMPDEST PUSH0 DUP6 EQ PUSH2 0x609 JUMPI PUSH1 0x40 MLOAD PUSH32 0x8C379A000000000000000000000000000000000000000000000000000000000 DUP2 MSTORE PUSH1 0x4 ADD PUSH2 0x600 SWAP1 PUSH2 0xDC3 JUMP JUMPDEST PUSH1 0x40 MLOAD DUP1 SWAP2 SUB SWAP1 REVERT JUMPDEST DUP3 DUP3 SWAP7 POP SWAP7 POP POP POP POP POP POP SWAP3 POP SWAP3 SWAP1 POP JUMP JUMPDEST PUSH0 DUP2 DUP4 GT PUSH2 0x629 JUMPI DUP3 PUSH2 0x62B JUMP JUMPDEST DUP2 JUMPDEST SWAP1 POP SWAP3 SWAP2 POP POP JUMP JUMPDEST PUSH1 0x40 MLOAD DUP1 PUSH1 0x40 ADD PUSH1 0x40 MSTORE DUP1 PUSH0 PUSH20 0xFFFFFFFFFFFFFFFFFFFFFFFFFFFFFFFFFFFFFFFF AND DUP2 MSTORE PUSH1 0x20 ADD PUSH0 DUP2 MSTORE POP SWAP1 JUMP JUMPDEST PUSH0 PUSH1 0x40 MLOAD SWAP1 POP SWAP1 JUMP JUMPDEST PUSH0 PUSH0 REVERT JUMPDEST PUSH0 PUSH0 REVERT JUMPDEST PUSH0 DUP2 SWAP1 POP SWAP2 SWAP1 POP JUMP JUMPDEST PUSH2 0x684 DUP2 PUSH2 0x672 JUMP JUMPDEST DUP2 EQ PUSH2 0x68E JUMPI PUSH0 PUSH0 REVERT JUMPDEST POP JUMP JUMPDEST PUSH0 DUP2 CALLDATALOAD SWAP1 POP PUSH2 0x69F DUP2 PUSH2 0x67B JUMP JUMPDEST SWAP3 SWAP2 POP POP JUMP JUMPDEST PUSH0 DUP2 SWAP1 POP SWAP2 SWAP1 POP JUMP JUMPDEST PUSH2 0x6B7 DUP2 PUSH2 0x6A5 JUMP JUMPDEST DUP2 EQ PUSH2 0x6C1 JUMPI PUSH0 PUSH0 REVERT JUMPDEST POP JUMP JUMPDEST PUSH0 DUP2 CALLDATALOAD SWAP1 POP PUSH2 0x6D2 DUP2 PUSH2 0x6AE JUMP JUMPDEST SWAP3 SWAP2 POP POP JUMP JUMPDEST PUSH0 PUSH0 PUSH1 0x40 DUP4 DUP6 SUB SLT ISZERO PUSH2 0x6EE JUMPI PUSH2 0x6ED PUSH2 0x66A JUMP JUMPDEST JUMPDEST PUSH0 PUSH2 0x6FB DUP6 DUP3 DUP7 ADD PUSH2 0x691 JUMP JUMPDEST SWAP3 POP POP PUSH1 0x20 PUSH2 0x70C DUP6 DUP3 DUP7 ADD PUSH2 0x6C4 JUMP JUMPDEST SWAP2 POP POP SWAP3 POP SWAP3 SWAP1 POP JUMP JUMPDEST PUSH0 DUP2 MLOAD SWAP1 POP SWAP2 SWAP1 POP JUMP JUMPDEST PUSH0 DUP3 DUP3 MSTORE PUSH1 0x20 DUP3 ADD SWAP1 POP SWAP3 SWAP2 POP POP JUMP JUMPDEST PUSH0 DUP2 SWAP1 POP PUSH1 0x20 DUP3 ADD SWAP1 POP SWAP2 SWAP1 POP JUMP JUMPDEST PUSH0 PUSH20 0xFFFFFFFFFFFFFFFFFFFFFFFFFFFFFFFFFFFFFFFF DUP3 AND SWAP1 POP SWAP2 SWAP1 POP JUMP JUMPDEST PUSH0 PUSH2 0x768 DUP3 PUSH2 0x73F JUMP JUMPDEST SWAP1 POP SWAP2 SWAP1 POP JUMP JUMPDEST PUSH2 0x778 DUP2 PUSH2 0x75E JUMP JUMPDEST DUP3 MSTORE POP POP JUMP JUMPDEST PUSH2 0x787 DUP2 PUSH2 0x6A5 JUMP JUMPDEST DUP3 MSTORE POP POP JUMP JUMPDEST PUSH1 0x40 DUP3 ADD PUSH0 DUP3 ADD MLOAD PUSH2 0x7A1 PUSH0 DUP6 ADD DUP3 PUSH2 0x76F JUMP JUMPDEST POP PUSH1 0x20 DUP3 ADD MLOAD PUSH2 0x7B4 PUSH1 0x20 DUP6 ADD DUP3 PUSH2 0x77E JUMP JUMPDEST POP POP POP POP JUMP JUMPDEST PUSH0 PUSH2 0x7C5 DUP4 DUP4 PUSH2 0x78D JUMP JUMPDEST PUSH1 0x40 DUP4 ADD SWAP1 POP SWAP3 SWAP2 POP POP JUMP JUMPDEST PUSH0 PUSH1 0x20 DUP3 ADD SWAP1 POP SWAP2 SWAP1 POP JUMP JUMPDEST PUSH0 PUSH2 0x7E7 DUP3 PUSH2 0x716 JUMP JUMPDEST PUSH2 0x7F1 DUP2 DUP6 PUSH2 0x720 JUMP JUMPDEST SWAP4 POP PUSH2 0x7FC DUP4 PUSH2 0x730 JUMP JUMPDEST DUP1 PUSH0 JUMPDEST DUP4 DUP2 LT ISZERO PUSH2 0x82C JUMPI DUP2 MLOAD PUSH2 0x813 DUP9 DUP3 PUSH2 0x7BA JUMP JUMPDEST SWAP8 POP PUSH2 0x81E DUP4 PUSH2 0x7D1 JUMP JUMPDEST SWAP3 POP POP PUSH1 0x1 DUP2 ADD SWAP1 POP PUSH2 0x7FF JUMP JUMPDEST POP DUP6 SWAP4 POP POP POP POP SWAP3 SWAP2 POP POP JUMP JUMPDEST PUSH0 PUSH1 0x20 DUP3 ADD SWAP1 POP DUP2 DUP2 SUB PUSH0 DUP4 ADD MSTORE PUSH2 0x851 DUP2 DUP5 PUSH2 0x7DD JUMP JUMPDEST SWAP1 POP SWAP3 SWAP2 POP POP JUMP JUMPDEST PUSH0 PUSH0 REVERT JUMPDEST PUSH0 PUSH1 0x1F NOT PUSH1 0x1F DUP4 ADD AND SWAP1 POP SWAP2 SWAP1 POP JUMP JUMPDEST PUSH32 0x4E487B7100000000000000000000000000000000000000000000000000000000 PUSH0 MSTORE PUSH1 0x41 PUSH1 0x4 MSTORE PUSH1 0x24 PUSH0 REVERT JUMPDEST PUSH2 0x8A3 DUP3 PUSH2 0x85D JUMP JUMPDEST DUP2 ADD DUP2 DUP2 LT PUSH8 0xFFFFFFFFFFFFFFFF DUP3 GT OR ISZERO PUSH2 0x8C2 JUMPI PUSH2 0x8C1 PUSH2 0x86D JUMP JUMPDEST JUMPDEST DUP1 PUSH1 0x40 MSTORE POP POP POP JUMP JUMPDEST PUSH0 PUSH2 0x8D4 PUSH2 0x661 JUMP JUMPDEST SWAP1 POP PUSH2 0x8E0 DUP3 DUP3 PUSH2 0x89A JUMP JUMPDEST SWAP2 SWAP1 POP JUMP JUMPDEST PUSH0 PUSH0 REVERT JUMPDEST PUSH0 PUSH0 REVERT JUMPDEST PUSH0 PUSH8 0xFFFFFFFFFFFFFFFF DUP3 GT ISZERO PUSH2 0x907 JUMPI PUSH2 0x906 PUSH2 0x86D JUMP JUMPDEST JUMPDEST PUSH1 0x20 DUP3 MUL SWAP1 POP PUSH1 0x20 DUP2 ADD SWAP1 POP SWAP2 SWAP1 POP JUMP JUMPDEST PUSH0 PUSH0 REVERT JUMPDEST PUSH2 0x925 DUP2 PUSH2 0x75E JUMP JUMPDEST DUP2 EQ PUSH2 0x92F JUMPI PUSH0 PUSH0 REVERT JUMPDEST POP JUMP JUMPDEST PUSH0 DUP2 CALLDATALOAD SWAP1 POP PUSH2 0x940 DUP2 PUSH2 0x91C JUMP JUMPDEST SWAP3 SWAP2 POP POP JUMP JUMPDEST PUSH0 PUSH1 0x60 DUP3 DUP5 SUB SLT ISZERO PUSH2 0x95B JUMPI PUSH2 0x95A PUSH2 0x859 JUMP JUMPDEST JUMPDEST PUSH2 0x965 PUSH1 0x60 PUSH2 0x8CB JUMP JUMPDEST SWAP1 POP PUSH0 PUSH2 0x974 DUP5 DUP3 DUP6 ADD PUSH2 0x932 JUMP JUMPDEST PUSH0 DUP4 ADD MSTORE POP PUSH1 0x20 PUSH2 0x987 DUP5 DUP3 DUP6 ADD PUSH2 0x6C4 JUMP JUMPDEST PUSH1 0x20 DUP4 ADD MSTORE POP PUSH1 0x40 PUSH2 0x99B DUP5 DUP3 DUP6 ADD PUSH2 0x6C4 JUMP JUMPDEST PUSH1 0x40 DUP4 ADD MSTORE POP SWAP3 SWAP2 POP POP JUMP JUMPDEST PUSH0 PUSH2 0x9B9 PUSH2 0x9B4 DUP5 PUSH2 0x8ED JUMP JUMPDEST PUSH2 0x8CB JUMP JUMPDEST SWAP1 POP DUP1 DUP4 DUP3 MSTORE PUSH1 0x20 DUP3 ADD SWAP1 POP PUSH1 0x60 DUP5 MUL DUP4 ADD DUP6 DUP2 GT ISZERO PUSH2 0x9DC JUMPI PUSH2 0x9DB PUSH2 0x918 JUMP JUMPDEST JUMPDEST DUP4 JUMPDEST DUP2 DUP2 LT ISZERO PUSH2 0xA05 JUMPI DUP1 PUSH2 0x9F1 DUP9 DUP3 PUSH2 0x946 JUMP JUMPDEST DUP5 MSTORE PUSH1 0x20 DUP5 ADD SWAP4 POP POP PUSH1 0x60 DUP2 ADD SWAP1 POP PUSH2 0x9DE JUMP JUMPDEST POP POP POP SWAP4 SWAP3 POP POP POP JUMP JUMPDEST PUSH0 DUP3 PUSH1 0x1F DUP4 ADD SLT PUSH2 0xA23 JUMPI PUSH2 0xA22 PUSH2 0x8E9 JUMP JUMPDEST JUMPDEST DUP2 CALLDATALOAD PUSH2 0xA33 DUP5 DUP3 PUSH1 0x20 DUP7 ADD PUSH2 0x9A7 JUMP JUMPDEST SWAP2 POP POP SWAP3 SWAP2 POP POP JUMP JUMPDEST PUSH0 PUSH1 0x40 DUP3 DUP5 SUB SLT ISZERO PUSH2 0xA51 JUMPI PUSH2 0xA50 PUSH2 0x859 JUMP JUMPDEST JUMPDEST PUSH2 0xA5B PUSH1 0x40 PUSH2 0x8CB JUMP JUMPDEST SWAP1 POP PUSH0 DUP3 ADD CALLDATALOAD PUSH8 0xFFFFFFFFFFFFFFFF DUP2 GT ISZERO PUSH2 0xA7A JUMPI PUSH2 0xA79 PUSH2 0x8E5 JUMP JUMPDEST JUMPDEST PUSH2 0xA86 DUP5 DUP3 DUP6 ADD PUSH2 0xA0F JUMP JUMPDEST PUSH0 DUP4 ADD MSTORE POP PUSH1 0x20 PUSH2 0xA99 DUP5 DUP3 DUP6 ADD PUSH2 0x6C4 JUMP JUMPDEST PUSH1 0x20 DUP4 ADD MSTORE POP SWAP3 SWAP2 POP POP JUMP JUMPDEST PUSH0 PUSH0 PUSH1 0x40 DUP4 DUP6 SUB SLT ISZERO PUSH2 0xABB JUMPI PUSH2 0xABA PUSH2 0x66A JUMP JUMPDEST JUMPDEST PUSH0 DUP4 ADD CALLDATALOAD PUSH8 0xFFFFFFFFFFFFFFFF DUP2 GT ISZERO PUSH2 0xAD8 JUMPI PUSH2 0xAD7 PUSH2 0x66E JUMP JUMPDEST JUMPDEST PUSH2 0xAE4 DUP6 DUP3 DUP7 ADD PUSH2 0xA3C JUMP JUMPDEST SWAP3 POP POP PUSH1 0x20 PUSH2 0xAF5 DUP6 DUP3 DUP7 ADD PUSH2 0x6C4 JUMP JUMPDEST SWAP2 POP POP SWAP3 POP SWAP3 SWAP1 POP JUMP JUMPDEST PUSH2 0xB08 DUP2 PUSH2 0x6A5 JUMP JUMPDEST DUP3 MSTORE POP POP JUMP JUMPDEST PUSH0 PUSH1 0x40 DUP3 ADD SWAP1 POP PUSH2 0xB21 PUSH0 DUP4 ADD DUP6 PUSH2 0xAFF JUMP JUMPDEST PUSH2 0xB2E PUSH1 0x20 DUP4 ADD DUP5 PUSH2 0xAFF JUMP JUMPDEST SWAP4 SWAP3 POP POP POP JUMP JUMPDEST PUSH0 DUP3 DUP3 MSTORE PUSH1 0x20 DUP3 ADD SWAP1 POP SWAP3 SWAP2 POP POP JUMP JUMPDEST PUSH32 0x506F696E746572206D69736D6174636800000000000000000000000000000000 PUSH0 DUP3 ADD MSTORE POP JUMP JUMPDEST PUSH0 PUSH2 0xB79 PUSH1 0x10 DUP4 PUSH2 0xB35 JUMP JUMPDEST SWAP2 POP PUSH2 0xB84 DUP3 PUSH2 0xB45 JUMP JUMPDEST PUSH1 0x20 DUP3 ADD SWAP1 POP SWAP2 SWAP1 POP JUMP JUMPDEST PUSH0 PUSH1 0x20 DUP3 ADD SWAP1 POP DUP2 DUP2 SUB PUSH0 DUP4 ADD MSTORE PUSH2 0xBA6 DUP2 PUSH2 0xB6D JUMP JUMPDEST SWAP1 POP SWAP2 SWAP1 POP JUMP JUMPDEST PUSH32 0x4E487B7100000000000000000000000000000000000000000000000000000000 PUSH0 MSTORE PUSH1 0x32 PUSH1 0x4 MSTORE PUSH1 0x24 PUSH0 REVERT JUMPDEST PUSH32 0x4E487B7100000000000000000000000000000000000000000000000000000000 PUSH0 MSTORE PUSH1 0x11 PUSH1 0x4 MSTORE PUSH1 0x24 PUSH0 REVERT JUMPDEST PUSH0 PUSH2 0xC11 DUP3 PUSH2 0x6A5 JUMP JUMPDEST SWAP2 POP PUSH2 0xC1C DUP4 PUSH2 0x6A5 JUMP JUMPDEST SWAP3 POP DUP3 DUP3 SUB SWAP1 POP DUP2 DUP2 GT ISZERO PUSH2 0xC34 JUMPI PUSH2 0xC33 PUSH2 0xBDA JUMP JUMPDEST JUMPDEST SWAP3 SWAP2 POP POP JUMP JUMPDEST PUSH0 PUSH2 0xC44 DUP3 PUSH2 0x6A5 JUMP JUMPDEST SWAP2 POP PUSH2 0xC4F DUP4 PUSH2 0x6A5 JUMP JUMPDEST SWAP3 POP DUP3 DUP3 ADD SWAP1 POP DUP1 DUP3 GT ISZERO PUSH2 0xC67 JUMPI PUSH2 0xC66 PUSH2 0xBDA JUMP JUMPDEST JUMPDEST SWAP3 SWAP2 POP POP JUMP JUMPDEST PUSH32 0x4E487B7100000000000000000000000000000000000000000000000000000000 PUSH0 MSTORE PUSH1 0x12 PUSH1 0x4 MSTORE PUSH1 0x24 PUSH0 REVERT JUMPDEST PUSH0 PUSH2 0xCA4 DUP3 PUSH2 0x6A5 JUMP JUMPDEST SWAP2 POP PUSH2 0xCAF DUP4 PUSH2 0x6A5 JUMP JUMPDEST SWAP3 POP DUP3 PUSH2 0xCBF JUMPI PUSH2 0xCBE PUSH2 0xC6D JUMP JUMPDEST JUMPDEST DUP3 DUP3 MOD SWAP1 POP SWAP3 SWAP2 POP POP JUMP JUMPDEST PUSH32 0x556E61626C6520746F2066756C66696C6C2074686520616D6F756E7400000000 PUSH0 DUP3 ADD MSTORE POP JUMP JUMPDEST PUSH0 PUSH2 0xCFE PUSH1 0x1C DUP4 PUSH2 0xB35 JUMP JUMPDEST SWAP2 POP PUSH2 0xD09 DUP3 PUSH2 0xCCA JUMP JUMPDEST PUSH1 0x20 DUP3 ADD SWAP1 POP SWAP2 SWAP1 POP JUMP JUMPDEST PUSH0 PUSH1 0x20 DUP3 ADD SWAP1 POP DUP2 DUP2 SUB PUSH0 DUP4 ADD MSTORE PUSH2 0xD2B DUP2 PUSH2 0xCF2 JUMP JUMPDEST SWAP1 POP SWAP2 SWAP1 POP JUMP JUMPDEST PUSH0 PUSH2 0xD3C DUP3 PUSH2 0x6A5 JUMP JUMPDEST SWAP2 POP PUSH32 0xFFFFFFFFFFFFFFFFFFFFFFFFFFFFFFFFFFFFFFFFFFFFFFFFFFFFFFFFFFFFFFFF DUP3 SUB PUSH2 0xD6E JUMPI PUSH2 0xD6D PUSH2 0xBDA JUMP JUMPDEST JUMPDEST PUSH1 0x1 DUP3 ADD SWAP1 POP SWAP2 SWAP1 POP JUMP JUMPDEST PUSH32 0x496E73756666696369656E74206C697175696469747900000000000000000000 PUSH0 DUP3 ADD MSTORE POP JUMP JUMPDEST PUSH0 PUSH2 0xDAD PUSH1 0x16 DUP4 PUSH2 0xB35 JUMP JUMPDEST SWAP2 POP PUSH2 0xDB8 DUP3 PUSH2 0xD79 JUMP JUMPDEST PUSH1 0x20 DUP3 ADD SWAP1 POP SWAP2 SWAP1 POP JUMP JUMPDEST PUSH0 PUSH1 0x20 DUP3 ADD SWAP1 POP DUP2 DUP2 SUB PUSH0 DUP4 ADD MSTORE PUSH2 0xDDA DUP2 PUSH2 0xDA1 JUMP JUMPDEST SWAP1 POP SWAP2 SWAP1 POP JUMP INVALID LOG2 PUSH5 0x6970667358 0x22 SLT KECCAK256 0xED 0xD0 0xBB PUSH19 0x5DED9CCCB6606637862D23BB18A2B4F84D45A0 PUSH31 0xC531D2CCF2F480DC64736F6C634300081C0033000000000000000000000000 "
		},
		"gasEstimates": {
			"creation": {
				"codeDepositCost": "721400",
				"executionCost": "780",
				"totalCost": "722180"
			},
			"external": {
				"getNextPointerforAmount(IReactiveFlashLoan.CircularQueue,uint256)": "infinite",
				"requestAmount(IReactiveFlashLoan.CircularQueue storage,uint256)": "infinite"
			},
			"internal": {
				"_getLiquidity(uint256,uint256)": "63"
			}
		},
		"methodIdentifiers": {
			"getNextPointerforAmount(IReactiveFlashLoan.CircularQueue,uint256)": "53db75a0",
			"requestAmount(IReactiveFlashLoan.CircularQueue storage,uint256)": "0d8809af"
		}
	},
	"abi": [
		{
			"inputs": [
				{
					"components": [
						{
							"components": [
								{
									"internalType": "address",
									"name": "user",
									"type": "address"
								},
								{
									"internalType": "uint256",
									"name": "balance",
									"type": "uint256"
								},
								{
									"internalType": "uint256",
									"name": "allowance",
									"type": "uint256"
								}
							],
							"internalType": "struct IReactiveFlashLoan.LP[]",
							"name": "LPs",
							"type": "tuple[]"
						},
						{
							"internalType": "uint256",
							"name": "currentPointer",
							"type": "uint256"
						}
					],
					"internalType": "struct IReactiveFlashLoan.CircularQueue",
					"name": "queue",
					"type": "tuple"
				},
				{
					"internalType": "uint256",
					"name": "amount",
					"type": "uint256"
				}
			],
			"name": "getNextPointerforAmount",
			"outputs": [
				{
					"internalType": "uint256",
					"name": "",
					"type": "uint256"
				},
				{
					"internalType": "uint256",
					"name": "",
					"type": "uint256"
				}
			],
			"stateMutability": "pure",
			"type": "function"
		}
	]
}